{
  "_format": "hh-sol-artifact-1",
  "contractName": "Token",
  "sourceName": "contracts/token.sol",
  "abi": [
    {
      "inputs": [],
      "stateMutability": "nonpayable",
      "type": "constructor"
    },
    {
      "inputs": [
        {
          "internalType": "address",
          "name": "account",
          "type": "address"
        }
      ],
      "name": "balanceOf",
      "outputs": [
        {
          "internalType": "uint256",
          "name": "",
          "type": "uint256"
        }
      ],
      "stateMutability": "view",
      "type": "function"
    },
    {
      "inputs": [],
      "name": "name",
      "outputs": [
        {
          "internalType": "string",
          "name": "",
          "type": "string"
        }
      ],
      "stateMutability": "view",
      "type": "function"
    },
    {
      "inputs": [],
      "name": "owner",
      "outputs": [
        {
          "internalType": "address",
          "name": "",
          "type": "address"
        }
      ],
      "stateMutability": "view",
      "type": "function"
    },
    {
      "inputs": [],
      "name": "sym",
      "outputs": [
        {
          "internalType": "string",
          "name": "",
          "type": "string"
        }
      ],
      "stateMutability": "view",
      "type": "function"
    },
    {
      "inputs": [],
      "name": "totalSupply",
      "outputs": [
        {
          "internalType": "uint256",
          "name": "",
          "type": "uint256"
        }
      ],
      "stateMutability": "view",
      "type": "function"
    },
    {
      "inputs": [
        {
          "internalType": "address",
          "name": "to",
          "type": "address"
        },
        {
          "internalType": "uint256",
          "name": "amount",
          "type": "uint256"
        }
      ],
      "name": "transfer",
      "outputs": [],
      "stateMutability": "nonpayable",
      "type": "function"
    }
  ],
  "bytecode": "0x60806040526040518060400160405280600d81526020017f4861726448617420546f6b656e000000000000000000000000000000000000008152506000908051906020019061004f92919061013b565b506040518060400160405280600381526020017f48485400000000000000000000000000000000000000000000000000000000008152506001908051906020019061009b92919061013b565b506127106002553480156100ae57600080fd5b5033600360006101000a81548173ffffffffffffffffffffffffffffffffffffffff021916908373ffffffffffffffffffffffffffffffffffffffff160217905550600254600460003373ffffffffffffffffffffffffffffffffffffffff1673ffffffffffffffffffffffffffffffffffffffff1681526020019081526020016000208190555061023f565b828054610147906101de565b90600052602060002090601f01602090048101928261016957600085556101b0565b82601f1061018257805160ff19168380011785556101b0565b828001600101855582156101b0579182015b828111156101af578251825591602001919060010190610194565b5b5090506101bd91906101c1565b5090565b5b808211156101da5760008160009055506001016101c2565b5090565b600060028204905060018216806101f657607f821691505b6020821081141561020a57610209610210565b5b50919050565b7f4e487b7100000000000000000000000000000000000000000000000000000000600052602260045260246000fd5b610aad806200024f6000396000f3fe608060405234801561001057600080fd5b50600436106100625760003560e01c806306fdde031461006757806318160ddd1461008557806370a08231146100a357806383813a28146100d35780638da5cb5b146100f1578063a9059cbb1461010f575b600080fd5b61006f61012b565b60405161007c9190610746565b60405180910390f35b61008d6101b9565b60405161009a91906107f6565b60405180910390f35b6100bd60048036038101906100b89190610644565b6101bf565b6040516100ca91906107f6565b60405180910390f35b6100db610208565b6040516100e89190610746565b60405180910390f35b6100f9610296565b604051610106919061072b565b60405180910390f35b61012960048036038101906101249190610671565b6102bc565b005b6000805461013890610926565b80601f016020809104026020016040519081016040528092919081815260200182805461016490610926565b80156101b15780601f10610186576101008083540402835291602001916101b1565b820191906000526020600020905b81548152906001019060200180831161019457829003601f168201915b505050505081565b60025481565b6000600460008373ffffffffffffffffffffffffffffffffffffffff1673ffffffffffffffffffffffffffffffffffffffff168152602001908152602001600020549050919050565b6001805461021590610926565b80601f016020809104026020016040519081016040528092919081815260200182805461024190610926565b801561028e5780601f106102635761010080835404028352916020019161028e565b820191906000526020600020905b81548152906001019060200180831161027157829003601f168201915b505050505081565b600360009054906101000a900473ffffffffffffffffffffffffffffffffffffffff1681565b61033a6040518060400160405280602081526020017f546f74616c2062616c616e6365206f662074686520736e646572206973202573815250600460003373ffffffffffffffffffffffffffffffffffffffff1673ffffffffffffffffffffffffffffffffffffffff1681526020019081526020016000205461048f565b80600460003373ffffffffffffffffffffffffffffffffffffffff1673ffffffffffffffffffffffffffffffffffffffff1681526020019081526020016000205410156103bc576040517f08c379a00000000000000000000000000000000000000000000000000000000081526004016103b3906107d6565b60405180910390fd5b6103df604051806060016040528060258152602001610a5360259139838361052b565b80600460003373ffffffffffffffffffffffffffffffffffffffff1673ffffffffffffffffffffffffffffffffffffffff168152602001908152602001600020600082825461042e9190610883565b9250508190555080600460008473ffffffffffffffffffffffffffffffffffffffff1673ffffffffffffffffffffffffffffffffffffffff1681526020019081526020016000206000828254610484919061082d565b925050819055505050565b61052782826040516024016104a59291906107a6565b6040516020818303038152906040527fb60e72cc000000000000000000000000000000000000000000000000000000007bffffffffffffffffffffffffffffffffffffffffffffffffffffffff19166020820180517bffffffffffffffffffffffffffffffffffffffffffffffffffffffff83818316178352505050506105ca565b5050565b6105c583838360405160240161054393929190610768565b6040516020818303038152906040527f0d26b925000000000000000000000000000000000000000000000000000000007bffffffffffffffffffffffffffffffffffffffffffffffffffffffff19166020820180517bffffffffffffffffffffffffffffffffffffffffffffffffffffffff83818316178352505050506105ca565b505050565b6105e1816105d96105e4610605565b63ffffffff16565b50565b60006a636f6e736f6c652e6c6f679050600080835160208501845afa505050565b610610819050919050565b6106186109b6565b565b60008135905061062981610a24565b92915050565b60008135905061063e81610a3b565b92915050565b60006020828403121561065a576106596109e5565b5b60006106688482850161061a565b91505092915050565b60008060408385031215610688576106876109e5565b5b60006106968582860161061a565b92505060206106a78582860161062f565b9150509250929050565b6106ba816108b7565b82525050565b60006106cb82610811565b6106d5818561081c565b93506106e58185602086016108f3565b6106ee816109ea565b840191505092915050565b600061070660118361081c565b9150610711826109fb565b602082019050919050565b610725816108e9565b82525050565b600060208201905061074060008301846106b1565b92915050565b6000602082019050818103600083015261076081846106c0565b905092915050565b6000606082019050818103600083015261078281866106c0565b905061079160208301856106b1565b61079e604083018461071c565b949350505050565b600060408201905081810360008301526107c081856106c0565b90506107cf602083018461071c565b9392505050565b600060208201905081810360008301526107ef816106f9565b9050919050565b600060208201905061080b600083018461071c565b92915050565b600081519050919050565b600082825260208201905092915050565b6000610838826108e9565b9150610843836108e9565b9250827fffffffffffffffffffffffffffffffffffffffffffffffffffffffffffffffff0382111561087857610877610958565b5b828201905092915050565b600061088e826108e9565b9150610899836108e9565b9250828210156108ac576108ab610958565b5b828203905092915050565b60006108c2826108c9565b9050919050565b600073ffffffffffffffffffffffffffffffffffffffff82169050919050565b6000819050919050565b60005b838110156109115780820151818401526020810190506108f6565b83811115610920576000848401525b50505050565b6000600282049050600182168061093e57607f821691505b6020821081141561095257610951610987565b5b50919050565b7f4e487b7100000000000000000000000000000000000000000000000000000000600052601160045260246000fd5b7f4e487b7100000000000000000000000000000000000000000000000000000000600052602260045260246000fd5b7f4e487b7100000000000000000000000000000000000000000000000000000000600052605160045260246000fd5b600080fd5b6000601f19601f8301169050919050565b7f4e6f7420456e6f75676820746f6b656e73000000000000000000000000000000600082015250565b610a2d816108b7565b8114610a3857600080fd5b50565b610a44816108e9565b8114610a4f57600080fd5b5056fe546f6b656e205472616e7366657220746f20257320616e6420616d6f756e74206973202573a26469706673582212203e426aae75e0aac05f1f246cf2248b4b1ff2b65f01f6da120aea658f9c5d261964736f6c63430008070033",
  "linkReferences": {},
  "deployedLinkReferences": {}
}